{
  "_format": "hh-sol-artifact-1",
  "contractName": "transcation",
  "sourceName": "contracts/transcation.sol",
  "abi": [
    {
      "inputs": [
        {
          "internalType": "address payable",
          "name": "recipientAddress",
          "type": "address"
        }
      ],
      "stateMutability": "payable",
      "type": "constructor"
    },
    {
      "inputs": [],
      "name": "admin",
      "outputs": [
        {
          "internalType": "address payable",
          "name": "",
          "type": "address"
        }
      ],
      "stateMutability": "view",
      "type": "function"
    },
    {
      "inputs": [],
      "name": "benifiter",
      "outputs": [
        {
          "internalType": "address payable",
          "name": "",
          "type": "address"
        }
      ],
      "stateMutability": "view",
      "type": "function"
    },
    {
      "inputs": [],
      "name": "getBalance",
      "outputs": [
        {
          "internalType": "uint256",
          "name": "",
          "type": "uint256"
        }
      ],
      "stateMutability": "view",
      "type": "function"
    },
    {
      "inputs": [],
      "name": "getuserbalance",
      "outputs": [
        {
          "internalType": "uint256",
          "name": "",
          "type": "uint256"
        }
      ],
      "stateMutability": "view",
      "type": "function"
    },
    {
      "inputs": [
        {
          "internalType": "string",
          "name": "_message",
          "type": "string"
        }
      ],
      "name": "hashmsg",
      "outputs": [
        {
          "internalType": "bytes32",
          "name": "",
          "type": "bytes32"
        }
      ],
      "stateMutability": "pure",
      "type": "function"
    },
    {
      "inputs": [
        {
          "internalType": "bytes32",
          "name": "_signedhashmsg",
          "type": "bytes32"
        },
        {
          "internalType": "bytes",
          "name": "_signature",
          "type": "bytes"
        }
      ],
      "name": "recoverSigner",
      "outputs": [
        {
          "internalType": "address",
          "name": "",
          "type": "address"
        }
      ],
      "stateMutability": "pure",
      "type": "function"
    },
    {
      "inputs": [
        {
          "internalType": "bytes32",
          "name": "_hashmsg",
          "type": "bytes32"
        }
      ],
      "name": "signhashmsg",
      "outputs": [
        {
          "internalType": "bytes32",
          "name": "",
          "type": "bytes32"
        }
      ],
      "stateMutability": "pure",
      "type": "function"
    },
    {
      "inputs": [
        {
          "internalType": "bytes",
          "name": "_sig",
          "type": "bytes"
        }
      ],
      "name": "splitSignature",
      "outputs": [
        {
          "internalType": "bytes32",
          "name": "r",
          "type": "bytes32"
        },
        {
          "internalType": "bytes32",
          "name": "s",
          "type": "bytes32"
        },
        {
          "internalType": "uint8",
          "name": "v",
          "type": "uint8"
        }
      ],
      "stateMutability": "pure",
      "type": "function"
    },
    {
      "inputs": [
        {
          "internalType": "string",
          "name": "_Msg",
          "type": "string"
        },
        {
          "internalType": "bytes",
          "name": "_Signature",
          "type": "bytes"
        }
      ],
      "name": "transfer_within",
      "outputs": [],
      "stateMutability": "payable",
      "type": "function"
    }
  ],
  "bytecode": "0x6080604052604051610f79380380610f798339818101604052810190610025919061010f565b336000806101000a81548173ffffffffffffffffffffffffffffffffffffffff021916908373ffffffffffffffffffffffffffffffffffffffff16021790555080600160006101000a81548173ffffffffffffffffffffffffffffffffffffffff021916908373ffffffffffffffffffffffffffffffffffffffff1602179055505061013c565b600080fd5b600073ffffffffffffffffffffffffffffffffffffffff82169050919050565b60006100dc826100b1565b9050919050565b6100ec816100d1565b81146100f757600080fd5b50565b600081519050610109816100e3565b92915050565b600060208284031215610125576101246100ac565b5b6000610133848285016100fa565b91505092915050565b610e2e8061014b6000396000f3fe6080604052600436106100865760003560e01c806397aba7f91161005957806397aba7f91461013a578063a7bb580314610177578063dfc9913d146101b6578063f851a440146101f3578063fb8dd8081461021e57610086565b806312065fe01461008b5780631f5c1255146100b65780635937dca9146100e15780639144076d1461011e575b600080fd5b34801561009757600080fd5b506100a0610249565b6040516100ad9190610660565b60405180910390f35b3480156100c257600080fd5b506100cb610251565b6040516100d891906106bc565b60405180910390f35b3480156100ed57600080fd5b5061010860048036038101906101039190610721565b610277565b604051610115919061075d565b60405180910390f35b6101386004803603810190610133919061095f565b6102a7565b005b34801561014657600080fd5b50610161600480360381019061015c91906109d7565b6103bc565b60405161016e9190610a54565b60405180910390f35b34801561018357600080fd5b5061019e60048036038101906101999190610a6f565b61042b565b6040516101ad93929190610ad4565b60405180910390f35b3480156101c257600080fd5b506101dd60048036038101906101d89190610b0b565b610493565b6040516101ea919061075d565b60405180910390f35b3480156101ff57600080fd5b506102086104c3565b60405161021591906106bc565b60405180910390f35b34801561022a57600080fd5b506102336104e7565b6040516102409190610660565b60405180910390f35b600047905090565b600160009054906101000a900473ffffffffffffffffffffffffffffffffffffffff1681565b60008160405160200161028a9190610bcc565b604051602081830303815290604052805190602001209050919050565b6102e56040518060400160405280601b81526020017f6465706c6f79696e67207472616e736665722066756e6374696f6e0000000000815250610527565b61031060008054906101000a900473ffffffffffffffffffffffffffffffffffffffff1683836105c0565b61034f576040517f08c379a000000000000000000000000000000000000000000000000000000000815260040161034690610c4f565b60405180910390fd5b600160009054906101000a900473ffffffffffffffffffffffffffffffffffffffff1673ffffffffffffffffffffffffffffffffffffffff166108fc349081150290604051600060405180830381858888f193505050501580156103b7573d6000803e3d6000fd5b505050565b6000806000806103cb8561042b565b925092509250600186828585604051600081526020016040526040516103f49493929190610c6f565b6020604051602081039080840390855afa158015610416573d6000803e3d6000fd5b50505060206040510351935050505092915050565b60008060006041845114610474576040517f08c379a000000000000000000000000000000000000000000000000000000000815260040161046b90610d00565b60405180910390fd5b6020840151925060408401519150606084015160001a90509193909250565b6000816040516020016104a69190610d86565b604051602081830303815290604052805190602001209050919050565b60008054906101000a900473ffffffffffffffffffffffffffffffffffffffff1681565b60008060009054906101000a900473ffffffffffffffffffffffffffffffffffffffff1673ffffffffffffffffffffffffffffffffffffffff1631905090565b6105bd8160405160240161053b9190610dd6565b6040516020818303038152906040527f41304fac000000000000000000000000000000000000000000000000000000007bffffffffffffffffffffffffffffffffffffffffffffffffffffffff19166020820180517bffffffffffffffffffffffffffffffffffffffffffffffffffffffff838183161783525050505061061e565b50565b6000806105cc84610493565b905060006105d982610277565b90508573ffffffffffffffffffffffffffffffffffffffff166105fc82866103bc565b73ffffffffffffffffffffffffffffffffffffffff1614925050509392505050565b60008151905060006a636f6e736f6c652e6c6f679050602083016000808483855afa5050505050565b6000819050919050565b61065a81610647565b82525050565b60006020820190506106756000830184610651565b92915050565b600073ffffffffffffffffffffffffffffffffffffffff82169050919050565b60006106a68261067b565b9050919050565b6106b68161069b565b82525050565b60006020820190506106d160008301846106ad565b92915050565b6000604051905090565b600080fd5b600080fd5b6000819050919050565b6106fe816106eb565b811461070957600080fd5b50565b60008135905061071b816106f5565b92915050565b600060208284031215610737576107366106e1565b5b60006107458482850161070c565b91505092915050565b610757816106eb565b82525050565b6000602082019050610772600083018461074e565b92915050565b600080fd5b600080fd5b6000601f19601f8301169050919050565b7f4e487b7100000000000000000000000000000000000000000000000000000000600052604160045260246000fd5b6107cb82610782565b810181811067ffffffffffffffff821117156107ea576107e9610793565b5b80604052505050565b60006107fd6106d7565b905061080982826107c2565b919050565b600067ffffffffffffffff82111561082957610828610793565b5b61083282610782565b9050602081019050919050565b82818337600083830152505050565b600061086161085c8461080e565b6107f3565b90508281526020810184848401111561087d5761087c61077d565b5b61088884828561083f565b509392505050565b600082601f8301126108a5576108a4610778565b5b81356108b584826020860161084e565b91505092915050565b600067ffffffffffffffff8211156108d9576108d8610793565b5b6108e282610782565b9050602081019050919050565b60006109026108fd846108be565b6107f3565b90508281526020810184848401111561091e5761091d61077d565b5b61092984828561083f565b509392505050565b600082601f83011261094657610945610778565b5b81356109568482602086016108ef565b91505092915050565b60008060408385031215610976576109756106e1565b5b600083013567ffffffffffffffff811115610994576109936106e6565b5b6109a085828601610890565b925050602083013567ffffffffffffffff8111156109c1576109c06106e6565b5b6109cd85828601610931565b9150509250929050565b600080604083850312156109ee576109ed6106e1565b5b60006109fc8582860161070c565b925050602083013567ffffffffffffffff811115610a1d57610a1c6106e6565b5b610a2985828601610931565b9150509250929050565b6000610a3e8261067b565b9050919050565b610a4e81610a33565b82525050565b6000602082019050610a696000830184610a45565b92915050565b600060208284031215610a8557610a846106e1565b5b600082013567ffffffffffffffff811115610aa357610aa26106e6565b5b610aaf84828501610931565b91505092915050565b600060ff82169050919050565b610ace81610ab8565b82525050565b6000606082019050610ae9600083018661074e565b610af6602083018561074e565b610b036040830184610ac5565b949350505050565b600060208284031215610b2157610b206106e1565b5b600082013567ffffffffffffffff811115610b3f57610b3e6106e6565b5b610b4b84828501610890565b91505092915050565b600081905092915050565b7f19457468657265756d205369676e6564204d6573736167653a0a333200000000600082015250565b6000610b95601c83610b54565b9150610ba082610b5f565b601c82019050919050565b6000819050919050565b610bc6610bc1826106eb565b610bab565b82525050565b6000610bd782610b88565b9150610be38284610bb5565b60208201915081905092915050565b600082825260208201905092915050565b7f6e6f742076616c6964207369676e000000000000000000000000000000000000600082015250565b6000610c39600e83610bf2565b9150610c4482610c03565b602082019050919050565b60006020820190508181036000830152610c6881610c2c565b9050919050565b6000608082019050610c84600083018761074e565b610c916020830186610ac5565b610c9e604083018561074e565b610cab606083018461074e565b95945050505050565b7f696e76616c6964207369676e6174757265206c656e6774680000000000000000600082015250565b6000610cea601883610bf2565b9150610cf582610cb4565b602082019050919050565b60006020820190508181036000830152610d1981610cdd565b9050919050565b600081519050919050565b60005b83811015610d49578082015181840152602081019050610d2e565b60008484015250505050565b6000610d6082610d20565b610d6a8185610b54565b9350610d7a818560208601610d2b565b80840191505092915050565b6000610d928284610d55565b915081905092915050565b6000610da882610d20565b610db28185610bf2565b9350610dc2818560208601610d2b565b610dcb81610782565b840191505092915050565b60006020820190508181036000830152610df08184610d9d565b90509291505056fea2646970667358221220da5d747571f5ef5a294e7a852906b973683df6e080b97cce67cfca7eea640e7f64736f6c63430008120033",
  "linkReferences": {},
  "deployedLinkReferences": {}
}